{
  "_format": "hh-sol-artifact-1",
  "contractName": "GomokuNFT",
  "sourceName": "contracts/GomokuNFT.sol",
  "abi": [
    {
      "inputs": [],
      "stateMutability": "nonpayable",
      "type": "constructor"
    },
    {
      "inputs": [
        {
          "internalType": "address",
          "name": "sender",
          "type": "address"
        },
        {
          "internalType": "uint256",
          "name": "tokenId",
          "type": "uint256"
        },
        {
          "internalType": "address",
          "name": "owner",
          "type": "address"
        }
      ],
      "name": "ERC721IncorrectOwner",
      "type": "error"
    },
    {
      "inputs": [
        {
          "internalType": "address",
          "name": "operator",
          "type": "address"
        },
        {
          "internalType": "uint256",
          "name": "tokenId",
          "type": "uint256"
        }
      ],
      "name": "ERC721InsufficientApproval",
      "type": "error"
    },
    {
      "inputs": [
        {
          "internalType": "address",
          "name": "approver",
          "type": "address"
        }
      ],
      "name": "ERC721InvalidApprover",
      "type": "error"
    },
    {
      "inputs": [
        {
          "internalType": "address",
          "name": "operator",
          "type": "address"
        }
      ],
      "name": "ERC721InvalidOperator",
      "type": "error"
    },
    {
      "inputs": [
        {
          "internalType": "address",
          "name": "owner",
          "type": "address"
        }
      ],
      "name": "ERC721InvalidOwner",
      "type": "error"
    },
    {
      "inputs": [
        {
          "internalType": "address",
          "name": "receiver",
          "type": "address"
        }
      ],
      "name": "ERC721InvalidReceiver",
      "type": "error"
    },
    {
      "inputs": [
        {
          "internalType": "address",
          "name": "sender",
          "type": "address"
        }
      ],
      "name": "ERC721InvalidSender",
      "type": "error"
    },
    {
      "inputs": [
        {
          "internalType": "uint256",
          "name": "tokenId",
          "type": "uint256"
        }
      ],
      "name": "ERC721NonexistentToken",
      "type": "error"
    },
    {
      "anonymous": false,
      "inputs": [
        {
          "indexed": true,
          "internalType": "address",
          "name": "owner",
          "type": "address"
        },
        {
          "indexed": true,
          "internalType": "address",
          "name": "approved",
          "type": "address"
        },
        {
          "indexed": true,
          "internalType": "uint256",
          "name": "tokenId",
          "type": "uint256"
        }
      ],
      "name": "Approval",
      "type": "event"
    },
    {
      "anonymous": false,
      "inputs": [
        {
          "indexed": true,
          "internalType": "address",
          "name": "owner",
          "type": "address"
        },
        {
          "indexed": true,
          "internalType": "address",
          "name": "operator",
          "type": "address"
        },
        {
          "indexed": false,
          "internalType": "bool",
          "name": "approved",
          "type": "bool"
        }
      ],
      "name": "ApprovalForAll",
      "type": "event"
    },
    {
      "anonymous": false,
      "inputs": [
        {
          "indexed": false,
          "internalType": "uint256",
          "name": "_fromTokenId",
          "type": "uint256"
        },
        {
          "indexed": false,
          "internalType": "uint256",
          "name": "_toTokenId",
          "type": "uint256"
        }
      ],
      "name": "BatchMetadataUpdate",
      "type": "event"
    },
    {
      "anonymous": false,
      "inputs": [
        {
          "indexed": false,
          "internalType": "uint256",
          "name": "_tokenId",
          "type": "uint256"
        }
      ],
      "name": "MetadataUpdate",
      "type": "event"
    },
    {
      "anonymous": false,
      "inputs": [
        {
          "indexed": true,
          "internalType": "address",
          "name": "from",
          "type": "address"
        },
        {
          "indexed": true,
          "internalType": "address",
          "name": "to",
          "type": "address"
        },
        {
          "indexed": true,
          "internalType": "uint256",
          "name": "tokenId",
          "type": "uint256"
        }
      ],
      "name": "Transfer",
      "type": "event"
    },
    {
      "inputs": [],
      "name": "MAX_SUPPLY",
      "outputs": [
        {
          "internalType": "uint256",
          "name": "",
          "type": "uint256"
        }
      ],
      "stateMutability": "view",
      "type": "function"
    },
    {
      "inputs": [
        {
          "internalType": "address",
          "name": "to",
          "type": "address"
        },
        {
          "internalType": "uint256",
          "name": "tokenId",
          "type": "uint256"
        }
      ],
      "name": "approve",
      "outputs": [],
      "stateMutability": "nonpayable",
      "type": "function"
    },
    {
      "inputs": [
        {
          "internalType": "address",
          "name": "owner",
          "type": "address"
        }
      ],
      "name": "balanceOf",
      "outputs": [
        {
          "internalType": "uint256",
          "name": "",
          "type": "uint256"
        }
      ],
      "stateMutability": "view",
      "type": "function"
    },
    {
      "inputs": [],
      "name": "baseTokenURI",
      "outputs": [
        {
          "internalType": "string",
          "name": "",
          "type": "string"
        }
      ],
      "stateMutability": "view",
      "type": "function"
    },
    {
      "inputs": [
        {
          "internalType": "uint256",
          "name": "tokenId",
          "type": "uint256"
        }
      ],
      "name": "getApproved",
      "outputs": [
        {
          "internalType": "address",
          "name": "",
          "type": "address"
        }
      ],
      "stateMutability": "view",
      "type": "function"
    },
    {
      "inputs": [
        {
          "internalType": "address",
          "name": "",
          "type": "address"
        }
      ],
      "name": "hasMinted",
      "outputs": [
        {
          "internalType": "bool",
          "name": "",
          "type": "bool"
        }
      ],
      "stateMutability": "view",
      "type": "function"
    },
    {
      "inputs": [
        {
          "internalType": "address",
          "name": "owner",
          "type": "address"
        },
        {
          "internalType": "address",
          "name": "operator",
          "type": "address"
        }
      ],
      "name": "isApprovedForAll",
      "outputs": [
        {
          "internalType": "bool",
          "name": "",
          "type": "bool"
        }
      ],
      "stateMutability": "view",
      "type": "function"
    },
    {
      "inputs": [
        {
          "internalType": "address",
          "name": "winner",
          "type": "address"
        }
      ],
      "name": "mintNFT",
      "outputs": [],
      "stateMutability": "nonpayable",
      "type": "function"
    },
    {
      "inputs": [],
      "name": "name",
      "outputs": [
        {
          "internalType": "string",
          "name": "",
          "type": "string"
        }
      ],
      "stateMutability": "view",
      "type": "function"
    },
    {
      "inputs": [
        {
          "internalType": "uint256",
          "name": "tokenId",
          "type": "uint256"
        }
      ],
      "name": "ownerOf",
      "outputs": [
        {
          "internalType": "address",
          "name": "",
          "type": "address"
        }
      ],
      "stateMutability": "view",
      "type": "function"
    },
    {
      "inputs": [
        {
          "internalType": "address",
          "name": "from",
          "type": "address"
        },
        {
          "internalType": "address",
          "name": "to",
          "type": "address"
        },
        {
          "internalType": "uint256",
          "name": "tokenId",
          "type": "uint256"
        }
      ],
      "name": "safeTransferFrom",
      "outputs": [],
      "stateMutability": "nonpayable",
      "type": "function"
    },
    {
      "inputs": [
        {
          "internalType": "address",
          "name": "from",
          "type": "address"
        },
        {
          "internalType": "address",
          "name": "to",
          "type": "address"
        },
        {
          "internalType": "uint256",
          "name": "tokenId",
          "type": "uint256"
        },
        {
          "internalType": "bytes",
          "name": "data",
          "type": "bytes"
        }
      ],
      "name": "safeTransferFrom",
      "outputs": [],
      "stateMutability": "nonpayable",
      "type": "function"
    },
    {
      "inputs": [
        {
          "internalType": "address",
          "name": "operator",
          "type": "address"
        },
        {
          "internalType": "bool",
          "name": "approved",
          "type": "bool"
        }
      ],
      "name": "setApprovalForAll",
      "outputs": [],
      "stateMutability": "nonpayable",
      "type": "function"
    },
    {
      "inputs": [
        {
          "internalType": "bytes4",
          "name": "interfaceId",
          "type": "bytes4"
        }
      ],
      "name": "supportsInterface",
      "outputs": [
        {
          "internalType": "bool",
          "name": "",
          "type": "bool"
        }
      ],
      "stateMutability": "view",
      "type": "function"
    },
    {
      "inputs": [],
      "name": "symbol",
      "outputs": [
        {
          "internalType": "string",
          "name": "",
          "type": "string"
        }
      ],
      "stateMutability": "view",
      "type": "function"
    },
    {
      "inputs": [
        {
          "internalType": "uint256",
          "name": "tokenId",
          "type": "uint256"
        }
      ],
      "name": "tokenURI",
      "outputs": [
        {
          "internalType": "string",
          "name": "",
          "type": "string"
        }
      ],
      "stateMutability": "view",
      "type": "function"
    },
    {
      "inputs": [],
      "name": "totalMinted",
      "outputs": [
        {
          "internalType": "uint256",
          "name": "",
          "type": "uint256"
        }
      ],
      "stateMutability": "view",
      "type": "function"
    },
    {
      "inputs": [
        {
          "internalType": "address",
          "name": "from",
          "type": "address"
        },
        {
          "internalType": "address",
          "name": "to",
          "type": "address"
        },
        {
          "internalType": "uint256",
          "name": "tokenId",
          "type": "uint256"
        }
      ],
      "name": "transferFrom",
      "outputs": [],
      "stateMutability": "nonpayable",
      "type": "function"
    }
  ],
  "bytecode": "0x610100604052605d6080818152906200177460a03960089062000023908262000142565b503480156200003157600080fd5b506040518060400160405280600a81526020016911dbdb5bdadd4813919560b21b81525060405180604001604052806006815260200165474f4d4f4b5560d01b815250816000908162000085919062000142565b50600162000094828262000142565b5050506200020e565b634e487b7160e01b600052604160045260246000fd5b600181811c90821680620000c857607f821691505b602082108103620000e957634e487b7160e01b600052602260045260246000fd5b50919050565b601f8211156200013d57600081815260208120601f850160051c81016020861015620001185750805b601f850160051c820191505b81811015620001395782815560010162000124565b5050505b505050565b81516001600160401b038111156200015e576200015e6200009d565b62000176816200016f8454620000b3565b84620000ef565b602080601f831160018114620001ae5760008415620001955750858301515b600019600386901b1c1916600185901b17855562000139565b600085815260208120601f198616915b82811015620001df57888601518255948401946001909101908401620001be565b5085821015620001fe5787850151600019600388901b60f8161c191681555b5050505050600190811b01905550565b611556806200021e6000396000f3fe608060405234801561001057600080fd5b50600436106101165760003560e01c80636352211e116100a2578063a2309ff811610071578063a2309ff81461024c578063b88d4fde14610255578063c87b56dd14610268578063d547cfb71461027b578063e985e9c51461028357600080fd5b80636352211e1461020b57806370a082311461021e57806395d89b4114610231578063a22cb4651461023957600080fd5b806323b872dd116100e957806323b872dd1461019857806332cb6b0c146101ab57806338e21cce146101c257806342842e0e146101e557806354ba0f27146101f857600080fd5b806301ffc9a71461011b57806306fdde0314610143578063081812fc14610158578063095ea7b314610183575b600080fd5b61012e61012936600461107e565b610296565b60405190151581526020015b60405180910390f35b61014b6102c1565b60405161013a91906110eb565b61016b6101663660046110fe565b610353565b6040516001600160a01b03909116815260200161013a565b610196610191366004611133565b61037c565b005b6101966101a636600461115d565b61038b565b6101b46122b881565b60405190815260200161013a565b61012e6101d0366004611199565b60096020526000908152604090205460ff1681565b6101966101f336600461115d565b61041b565b610196610206366004611199565b61043b565b61016b6102193660046110fe565b610626565b6101b461022c366004611199565b610631565b61014b610679565b6101966102473660046111b4565b610688565b6101b460075481565b610196610263366004611206565b610693565b61014b6102763660046110fe565b6106ab565b61014b6107bc565b61012e6102913660046112e2565b61084a565b60006001600160e01b03198216632483248360e11b14806102bb57506102bb82610878565b92915050565b6060600080546102d090611315565b80601f01602080910402602001604051908101604052809291908181526020018280546102fc90611315565b80156103495780601f1061031e57610100808354040283529160200191610349565b820191906000526020600020905b81548152906001019060200180831161032c57829003601f168201915b5050505050905090565b600061035e826108c8565b506000828152600460205260409020546001600160a01b03166102bb565b610387828233610901565b5050565b6001600160a01b0382166103ba57604051633250574960e11b8152600060048201526024015b60405180910390fd5b60006103c783833361090e565b9050836001600160a01b0316816001600160a01b031614610415576040516364283d7b60e01b81526001600160a01b03808616600483015260248201849052821660448201526064016103b1565b50505050565b61043683838360405180602001604052806000815250610693565b505050565b6122b8600754106104805760405162461bcd60e51b815260206004820152600f60248201526e105b1b081391951cc81b5a5b9d1959608a1b60448201526064016103b1565b6001600160a01b0381166104c85760405162461bcd60e51b815260206004820152600f60248201526e496e76616c6964206164647265737360881b60448201526064016103b1565b6001600160a01b03811660009081526009602052604090205460ff161561053b5760405162461bcd60e51b815260206004820152602160248201527f416464726573732068617320616c7265616479206d696e74656420616e204e466044820152601560fa1b60648201526084016103b1565b6000600754600161054c9190611365565b90506105588282610a07565b6105ec816008805461056990611315565b80601f016020809104026020016040519081016040528092919081815260200182805461059590611315565b80156105e25780601f106105b7576101008083540402835291602001916105e2565b820191906000526020600020905b8154815290600101906020018083116105c557829003601f168201915b5050505050610a21565b6001600160a01b0382166000908152600960205260408120805460ff19166001179055600780549161061d83611378565b91905055505050565b60006102bb826108c8565b60006001600160a01b03821661065d576040516322718ad960e21b8152600060048201526024016103b1565b506001600160a01b031660009081526003602052604090205490565b6060600180546102d090611315565b610387338383610a71565b61069e84848461038b565b6104153385858585610b10565b60606106b6826108c8565b50600082815260066020526040812080546106d090611315565b80601f01602080910402602001604051908101604052809291908181526020018280546106fc90611315565b80156107495780601f1061071e57610100808354040283529160200191610749565b820191906000526020600020905b81548152906001019060200180831161072c57829003601f168201915b50505050509050600061076760408051602081019091526000815290565b90508051600003610779575092915050565b8151156107ab578082604051602001610793929190611391565b60405160208183030381529060405292505050919050565b6107b484610c3b565b949350505050565b600880546107c990611315565b80601f01602080910402602001604051908101604052809291908181526020018280546107f590611315565b80156108425780601f1061081757610100808354040283529160200191610842565b820191906000526020600020905b81548152906001019060200180831161082557829003601f168201915b505050505081565b6001600160a01b03918216600090815260056020908152604080832093909416825291909152205460ff1690565b60006001600160e01b031982166380ac58cd60e01b14806108a957506001600160e01b03198216635b5e139f60e01b145b806102bb57506301ffc9a760e01b6001600160e01b03198316146102bb565b6000818152600260205260408120546001600160a01b0316806102bb57604051637e27328960e01b8152600481018490526024016103b1565b6104368383836001610cb0565b6000828152600260205260408120546001600160a01b039081169083161561093b5761093b818486610db6565b6001600160a01b0381161561097957610958600085600080610cb0565b6001600160a01b038116600090815260036020526040902080546000190190555b6001600160a01b038516156109a8576001600160a01b0385166000908152600360205260409020805460010190555b60008481526002602052604080822080546001600160a01b0319166001600160a01b0389811691821790925591518793918516917fddf252ad1be2c89b69c2b068fc378daa952ba7f163c4a11628f55a4df523b3ef91a4949350505050565b610387828260405180602001604052806000815250610e1a565b6000828152600660205260409020610a398282611406565b506040518281527ff8e1a15aba9398e019f0b49df1a4fde98ee17ae345cb5f6b5e2c27f5033e8ce79060200160405180910390a15050565b6001600160a01b038216610aa357604051630b61174360e31b81526001600160a01b03831660048201526024016103b1565b6001600160a01b03838116600081815260056020908152604080832094871680845294825291829020805460ff191686151590811790915591519182527f17307eab39ab6107e8899845ad3d59bd9653f200f220920489ca2b5937696c31910160405180910390a3505050565b6001600160a01b0383163b15610c3457604051630a85bd0160e11b81526001600160a01b0384169063150b7a0290610b529088908890879087906004016114c6565b6020604051808303816000875af1925050508015610b8d575060408051601f3d908101601f19168201909252610b8a91810190611503565b60015b610bf6573d808015610bbb576040519150601f19603f3d011682016040523d82523d6000602084013e610bc0565b606091505b508051600003610bee57604051633250574960e11b81526001600160a01b03851660048201526024016103b1565b805181602001fd5b6001600160e01b03198116630a85bd0160e11b14610c3257604051633250574960e11b81526001600160a01b03851660048201526024016103b1565b505b5050505050565b6060610c46826108c8565b506000610c5e60408051602081019091526000815290565b90506000815111610c7e5760405180602001604052806000815250610ca9565b80610c8884610e32565b604051602001610c99929190611391565b6040516020818303038152906040525b9392505050565b8080610cc457506001600160a01b03821615155b15610d86576000610cd4846108c8565b90506001600160a01b03831615801590610d005750826001600160a01b0316816001600160a01b031614155b8015610d135750610d11818461084a565b155b15610d3c5760405163a9fbf51f60e01b81526001600160a01b03841660048201526024016103b1565b8115610d845783856001600160a01b0316826001600160a01b03167f8c5be1e5ebec7d5bd14f71427d1e84f3dd0314c0f7b2291e5b200ac8c7c3b92560405160405180910390a45b505b5050600090815260046020526040902080546001600160a01b0319166001600160a01b0392909216919091179055565b610dc1838383610ec5565b610436576001600160a01b038316610def57604051637e27328960e01b8152600481018290526024016103b1565b60405163177e802f60e01b81526001600160a01b0383166004820152602481018290526044016103b1565b610e248383610f28565b610436336000858585610b10565b60606000610e3f83610f8d565b600101905060008167ffffffffffffffff811115610e5f57610e5f6111f0565b6040519080825280601f01601f191660200182016040528015610e89576020820181803683370190505b5090508181016020015b600019016f181899199a1a9b1b9c1cb0b131b232b360811b600a86061a8153600a8504945084610e9357509392505050565b60006001600160a01b038316158015906107b45750826001600160a01b0316846001600160a01b03161480610eff5750610eff848461084a565b806107b45750506000908152600460205260409020546001600160a01b03908116911614919050565b6001600160a01b038216610f5257604051633250574960e11b8152600060048201526024016103b1565b6000610f608383600061090e565b90506001600160a01b03811615610436576040516339e3563760e11b8152600060048201526024016103b1565b60008072184f03e93ff9f4daa797ed6e38ed64bf6a1f0160401b8310610fcc5772184f03e93ff9f4daa797ed6e38ed64bf6a1f0160401b830492506040015b6d04ee2d6d415b85acef81000000008310610ff8576d04ee2d6d415b85acef8100000000830492506020015b662386f26fc10000831061101657662386f26fc10000830492506010015b6305f5e100831061102e576305f5e100830492506008015b612710831061104257612710830492506004015b60648310611054576064830492506002015b600a83106102bb5760010192915050565b6001600160e01b03198116811461107b57600080fd5b50565b60006020828403121561109057600080fd5b8135610ca981611065565b60005b838110156110b657818101518382015260200161109e565b50506000910152565b600081518084526110d781602086016020860161109b565b601f01601f19169290920160200192915050565b602081526000610ca960208301846110bf565b60006020828403121561111057600080fd5b5035919050565b80356001600160a01b038116811461112e57600080fd5b919050565b6000806040838503121561114657600080fd5b61114f83611117565b946020939093013593505050565b60008060006060848603121561117257600080fd5b61117b84611117565b925061118960208501611117565b9150604084013590509250925092565b6000602082840312156111ab57600080fd5b610ca982611117565b600080604083850312156111c757600080fd5b6111d083611117565b9150602083013580151581146111e557600080fd5b809150509250929050565b634e487b7160e01b600052604160045260246000fd5b6000806000806080858703121561121c57600080fd5b61122585611117565b935061123360208601611117565b925060408501359150606085013567ffffffffffffffff8082111561125757600080fd5b818701915087601f83011261126b57600080fd5b81358181111561127d5761127d6111f0565b604051601f8201601f19908116603f011681019083821181831017156112a5576112a56111f0565b816040528281528a60208487010111156112be57600080fd5b82602086016020830137600060208483010152809550505050505092959194509250565b600080604083850312156112f557600080fd5b6112fe83611117565b915061130c60208401611117565b90509250929050565b600181811c9082168061132957607f821691505b60208210810361134957634e487b7160e01b600052602260045260246000fd5b50919050565b634e487b7160e01b600052601160045260246000fd5b808201808211156102bb576102bb61134f565b60006001820161138a5761138a61134f565b5060010190565b600083516113a381846020880161109b565b8351908301906113b781836020880161109b565b01949350505050565b601f82111561043657600081815260208120601f850160051c810160208610156113e75750805b601f850160051c820191505b81811015610c32578281556001016113f3565b815167ffffffffffffffff811115611420576114206111f0565b6114348161142e8454611315565b846113c0565b602080601f83116001811461146957600084156114515750858301515b600019600386901b1c1916600185901b178555610c32565b600085815260208120601f198616915b8281101561149857888601518255948401946001909101908401611479565b50858210156114b65787850151600019600388901b60f8161c191681555b5050505050600190811b01905550565b6001600160a01b03858116825284166020820152604081018390526080606082018190526000906114f9908301846110bf565b9695505050505050565b60006020828403121561151557600080fd5b8151610ca98161106556fea264697066735822122011190bd5323dd4d23b7481aaf9629a462148b9a20d179dc164386004ed598dff64736f6c6343000814003368747470733a2f2f62656967652d6c6174652d656d752d3537352e6d7970696e6174612e636c6f75642f697066732f516d61716855466f4c4a3945564c73587a5a7a594c32534a36447441746f5a5275424b4c667033595931666a7837",
  "linkReferences": {},
  "deployedLinkReferences": {}
}